:100000000C942A000C9445000C9445000C94450077
:100010000C9445000C9445000C9445000C9445004C
:100020000C9445000C9445000C9445000C94A203DC
:100030000C945B030C9445000C9445000C94450013
:100040000C9445000C9445000C9445000C9445001C
:100050000C94450011241FBECFE5D4E0DEBFCDBF18
:1000600011E0A0E6B0E0E4E2FEE102C005900D92EE
:10007000A230B107D9F712E0A2E0B1E001C01D92B1
:10008000A93DB107E1F70C9449020C9400000E94CD
:10009000CB038FEC87BB86E088BB78940895FF92F2
:1000A0000F931F93CF938C01F62E60E280E090E0D7
:1000B0000E94250464E280E090E00E942504C0E0F4
:1000C0009C2FCF15E8F4990F2C2F3327F801E20F5E
:1000D000F31F8081811191602370307023303105CE
:1000E00061F4892F805D8A3308F0895D9927682F34
:1000F00080E090E00E94250490E0CF5FCF1518F3D8
:1001000060E280E090E00E942504CF911F910F9162
:10011000FF900895982F8FEC87BB88B38C7F816008
:1001200088BB992321F088B3837F886003C088B39C
:10013000837F846088BB81E00E94830588B38C7FC5
:10014000826088BB81E00E94830508950F931F930E
:1001500083EC87BB0CEF88B38023816088BB81E090
:100160000E94830586B3992723E0969587952A9563
:10017000E1F7182F117081E00E94830588B3802376
:10018000826088BB81E00E948305812F99271F919F
:100190000F910895FF920F931F93F82E881F8827C1
:1001A000881F0E948A000F2D1127C801E6E096954E
:1001B0008795EA95E1F781700E948A00C80175E091
:1001C000969587957A95E1F781700E948A00C8011B
:1001D00064E0969587956A95E1F781700E948A00A0
:1001E000C80153E0969587955A95E1F781700E9472
:1001F0008A00C801969587959695879581700E948B
:100200008A0016950795802F81700E948A0081E0F0
:10021000F8228F2D0E948A001F910F91FF90089560
:100220001F93CF9310E0C0E80E94A60081111C2B01
:10023000C695D1F7812F9927CF911F9108951F93CC
:10024000CF93C0E01C2FCC0F0E94A600C82B1F5FCD
:100250001530C8F38C2F9927CF911F910895CF9314
:10026000DF93C0E0D0E00E94A600882329F4219605
:1002700083E1C838D807B8F3CC5DD54049F460E6CF
:1002800070E080E090E00E94550480E090E002C0C1
:1002900081E090E0DF91CF910895FF920F931F933B
:1002A000CF93F82EC0E08EE00E94CA008F2D0E94EE
:1002B000CA008C2F0E94CA008C2F0E94CA008C2F6B
:1002C0000E948A008C2F0E948A000E942F0188239E
:1002D00039F10E941001C82F8F15F1F099279F93D3
:1002E0008F938F2D99279F938F9383E790E09F9310
:1002F0008F9309E112E01F930F930E94040DB80140
:1003000080E090E00E9455048DB79EB708960FB626
:10031000F8949EBF0FBE8DBF0E9410010E94100175
:1003200080E090E0CF1509F481E0CF911F910F910B
:10033000FF900895EF92FF920F931F93CF93C82FD2
:1003400000E0EE24FF2483E20E94CA008C2F0E946A
:10035000CA00802F0E94CA00802F0E94CA00802FEE
:100360000E948A00802F0E948A000E942F01882309
:1003700069F10E9410018C17E9F099279F938F93E0
:100380008C2F99279F938F9381E990E09F938F9370
:1003900009E112E01F930F930E94040DB801C701F9
:1003A0000E9455048DB79EB708960FB6F8949EBF6D
:1003B0000FBE8DBF0E9410019927F82EEE240E94D7
:1003C00010019927E82AF92A0E941F01C701CF913D
:1003D0001F910F91FF90EF900895AF92BF92CF922F
:1003E000DF92EF92FF920F931F93CF93C0E0AA2466
:1003F000BB2465018601750187E00E94CA008C2F2D
:100400000E948A008C2F0E948A000E942F0188235C
:10041000A1F10E94A60080910201C81790F4EE0C91
:10042000FF1C001F111F0E94A6009927AA27BB27A7
:10043000E82AF92A0A2B1B2BCF5F80910201C817EB
:1004400070F3C0E020910201C217A8F4AA0CBB1CF3
:10045000CC1CDD1CD801C70181709070A070B070F9
:10046000A82AB92ACA2ADB2A16950795F794E79491
:10047000CF5FC21758F30E941F01C601B501CF918B
:100480001F910F91FF90EF90DF90CF90BF90AF90B2
:100490000895CEE1D4E0DEBFCDBF0E94470084E6E0
:1004A0000E94A40588E190E02FE00FB6F894A8958B
:1004B00081BD0FBE21BDA895C79B02C0C79801C0D2
:1004C000C79ABE016F5B7F4F80E090E00E94F0030F
:1004D000892B89F3C69B02C0C69801C0C69AFE014B
:1004E000EF5BFF4FE081E33709F066C080910201C6
:1004F000882339F46FEA70E080E090E00E945504B0
:10050000DACF0E94ED017B018C019F938F937F9343
:100510006F938DEB90E09F938F936E010894C11CB5
:10052000D11CDF92CF920E94040DB60180E090E0D2
:100530000E9455048DB79EB708960FB6F8949EBFDB
:100540000FBE8DBF17FD05C0C801B7010E94950DF4
:1005500016C0D801C70181709070A070B070169558
:100560000795F794E7948E299F29A02BB12BBC0106
:10057000CD010E94950D9B01AC010E94360D29E62C
:100580003CEF43EB56E30E94410EDC01CB01BF93ED
:10059000AF939F938F938AEC90E09F938F93DF921A
:1005A000CF920E94040DB60180E090E00E945504B5
:1005B0008DB79EB7089655C0EA3709F07CCF65ED38
:1005C00070E080E090E00E9455048AE20E94CA0038
:1005D00080E00E948A0080E00E948A0084E60E94F7
:1005E000A40581EA0E944D018AE00E94A4058DE0E5
:1005F0000E949A017C018AE00E94A405E092020117
:10060000FF92EF928FED90E09F938F938E010F5F9B
:100610001F4F1F930F930E94040DB80180E090E0DC
:100620000E94550485EA0E944D018AE00E94A405BB
:1006300085E00E949A017C018AE00E94A405FF9255
:10064000EF928CEE90E09F938F931F930F930E94F5
:10065000040DB80180E090E00E9455048DB79EB76C
:100660000C960FB6F8949EBF0FBE8DBF24CF805D51
:100670008A3308F0895D992708958FEC87BB089528
:1006800083EC87BB0895882321F088B3837F88603B
:1006900003C088B3837F846088BB0895089588234E
:1006A00021F088B38C7F826003C088B38C7F816027
:1006B00088BB089508951F920F920FB60F921124D0
:1006C0002F933F934F935F936F937F938F939F935A
:1006D000AF93BF93EF93FF93CF93DF93CDB7DEB785
:1006E0002197DEBFCDBFBE016F5F7F4F8BE091E0F2
:1006F0000E943105892B41F089818CB91092140236
:1007000010921302559A07C0559881E090E090939B
:100710001402809313022196F894DEBFCDBFDF91BF
:10072000CF91FF91EF91BF91AF919F918F917F9169
:100730006F915F914F913F912F910F900FBE0F904E
:100740001F9018951F920F920FB60F9211242F939E
:100750003F934F935F936F937F938F939F93AF9349
:10076000BF93EF93FF936CB183E091E00E94C304C9
:100770005F99F9CFFF91EF91BF91AF919F918F91C9
:100780007F916F915F914F913F912F910F900FBE8D
:100790000F901F90189588EB8AB986E880BD87E690
:1007A00089B943E151E060E870E083E091E00E94A4
:1007B0009A0443E951E060E870E08BE091E00E9428
:1007C0009A0481E090E090931402809313020895BC
:1007D00080E890E0089583E091E00E94A4040895E9
:1007E00083E091E00E9431050895A1E0B0E0EBEFD5
:1007F000F3E00C94CF0E5C017B016A0100E010E095
:100800000CC08981F70181937F01882371F0C801B1
:100810000F5F1F4F8C159D0544F4BE016F5F7F4F26
:10082000C5010E94F003019761F3C801EAE0219637
:100830000C94EB0E80E090E0089580E890E008953D
:100840008BE091E00E94A4040895A1E0B0E0EBE207
:10085000F4E00C94D50E8C016983080F191F0D5E0E
:100860001D4FF80180819181892B19F0108211822E
:1008700013C069818BE091E00E94C304F80180817C
:100880009181892B61F0BE016F5F7F4F8BE091E01A
:100890000E943105892B19F089818CB9559A81E024
:1008A00090E0E4E021960C94F10EEF92FF920F930A
:1008B0001F93CF93DF937C01EB0100E010E0888170
:1008C000882351F08991682FC7010E9425040F5F8A
:1008D0001F4F88818823B1F7C801E6E0CDB7DEB7A6
:1008E0000C94EF0EEF92FF920F931F93CF93DF9331
:1008F0008C01EB01EE24FF246991662349F0C801C5
:100900000E9425040894E11CF11C69916623B9F743
:100910006DE0C8010E9425046AE0C8010E94250418
:1009200082E090E0E80EF91EC701E6E0CDB7DEB741
:100930000C94EF0EFC016083718312821382148287
:1009400015824683578308950F931F938C010E944D
:10095000B3049C01F80180819181821B930B019764
:100960001F910F910895FC018481958140815181EF
:10097000840F951F22813381821B930B0197BA014B
:100980000E94920E0895CF93DF93DC01E0E0F0E047
:100990007FB7F89412964D915C9113979A012F5F4F
:1009A0003F4F8D919C9111972817390714F020E043
:1009B00030E014968D919C9115972817390769F0AE
:1009C0001696ED91FC911797E40FF51F6083129630
:1009D0002D933C931397E1E0F0E07FBFCF01DF91CF
:1009E000CF910895A0E0B0E0E8EFF4E00C94D00ED1
:1009F0008C01EB017A01CC24DD24BFB6F8940E946F
:100A0000B3048C179D0734F1F801228133812197BB
:100A1000FFEFCF3FDF07C1F0F801A681B781A20F3A
:100A2000B31FF70181917F018C932F5F3F4FF80136
:100A3000808191812817390714F020E030E0219758
:100A4000FFEFCF3FDF0741F7F8012283338381E0D7
:100A5000C82ED12CBFBEC601E9E0CDB7DEB70C94DD
:100A6000EC0E0F931F93CF93DF93DC018B0140E0DB
:100A700050E06FB7F89412968D919C91139714964D
:100A80002D913C91159782179307E9F01696ED91F9
:100A9000FC911797E20FF31F8081F8018083149671
:100AA0002D913C9115972F5F3F4F8D919C91119700
:100AB0002817390714F020E030E014962D933C936A
:100AC000159741E050E06FBFCA01DF91CF911F91B0
:100AD0000F910895FC01DB0140E050E06FB7F894FE
:100AE00082819381248135818217930749F00680A2
:100AF000F781E02DE20FF31F80818C9341E050E0FD
:100B00006FBFCA010895A2E0B0E0E9E8F5E00C94F7
:100B1000D70E282F19828981821790F41A828A8130
:100B2000992702973CF48A818F5F8A838A8199276B
:100B30000297CCF389818F5F89838981821770F353
:100B4000E2E022960C94F30E2091F9003091FA0025
:100B5000E22FF32F3197F1F78A95D1F708958A3074
:100B600010F4805D01C0895C99270895FB018823FA
:100B700011F4608101C06491862F992708952F9206
:100B80003F924F925F926F927F928F929F92AF921D
:100B9000BF92CF92DF92EF92FF920F931F93CF936A
:100BA000DF93CDB7DEB765970FB6F894DEBF0FBE03
:100BB000CDBFAA24BB2465014C011B014F87588B74
:100BC0001D861E86FC01168217821C8A1D8A83815F
:100BD00081FD39C48FEF9FEF4DC42D853E8520FFE9
:100BE0001FC4862D80538A3000F5F0E36F1639F468
:100BF000552029F4772019F4C9019160B3C18AE026
:100C0000589E502C1124852D860D0F2EF0ED5F2E51
:100C1000F02D580E22F40F2EFFE75F2EF02D8D855C
:100C20009E8583FD10C4752C0EC4862D8556833099
:100C300020F0805E833008F025C1EF85F8899F01A0
:100C40002C5F3F4F2F87388BA080B180C280D3802C
:100C50008C899D89892B49F488E290E00E94020CDE
:100C60008C8B9D8B892B09F4D8C38D859E8583FD44
:100C700004C00F2EF6E05F2EF02D8D859E85877BBC
:100C80008D879E87C601B5010E94FC0D892BC1F09E
:100C90008EE48B83898381E48A83FE013496EA8B18
:100CA000FB8B862D8556833008F0BBC28981805E20
:100CB00089838A81805E8A838B81805E8B83B1C2C7
:100CC000C601B5010E94030E892BE1F089E48B83F4
:100CD0008EE48A8386E489839E012C5F3F4F2A8BB2
:100CE0003B8B20E030E040E050E0C601B5010E94BF
:100CF0009F0D8823B4F68DE28C83CE0105968A8BF6
:100D00009B8BCFCF8D859E8592608D879E87862D0C
:100D1000992787FD90958734910509F45AC0883446
:100D200091053CF48534910599F08634910561F183
:100D30008AC38636910541F18736910524F48536BC
:100D4000910531F080C38736910509F442C07BC319
:100D50008E01035F1F4F252DB601A5018C899D894A
:100D60000E94530A482E9CEF790E15140CF47A94C5
:100D7000EC89FD89EA8BFB8B01900020E9F7319724
:100D8000AE2E2C89A21AB8C18D859E8594608D8760
:100D90009E878E01035F1F4F252DB601A5018C890B
:100DA0009D890E94530A482E15140CF47A948C895C
:100DB0009D898A8B9B8B14144CF4FC0101900020BC
:100DC000E9F73197AE2E9C89A91A96C1A52CA39458
:100DD00093C18D859E8598608D879E87252D552092
:100DE00009F421E08E01035F1F4FB601A5018C8934
:100DF0009D890E94530A482E8D859E8592FF20C0B2
:100E0000842D850D8150A82E8AF084157CF08A2DC2
:100E1000992787FD9095EC89FD89E80FF91F80815E
:100E2000803321F4AA9414F0A4148CF7AA2014F0AF
:100E3000A41414F4552416C05A2C5418539412C0F8
:100E4000A52C151474F48A2D992787FD9095EC89AB
:100E5000FD89E80FF91F8081803319F4AA941A14D0
:100E600094F35A2C8A2D992787FD9095EC89FD895A
:100E7000E80FF91F11828D859E8592FD95CFEEEFCB
:100E80006E0E71CF8D859E8583FF04C0552011F4B1
:100E900055245394862D992787FD90958936910581
:100EA00009F495C08A36910514F58835910509F441
:100EB000CCC08935910594F48B329105B9F18C320F
:100EC000910534F480329105B1F18397E1F19EC22E
:100ED0008D329105A1F18E97D1F198C2833691059B
:100EE00009F443C08436910509F471C08FC280377C
:100EF000910509F4A1C08137910544F48C36910520
:100F000071F18F36910509F494C080C2853791053F
:100F100009F49DC08637910524F48337910579F152
:100F200075C28837910509F490C070C28D859E8581
:100F300080618D879E878D859E85806213C08D859B
:100F40009E8580680FC08D859E8580640BC08D85D1
:100F50009E8588609E7F8D879E87552474C28D856F
:100F60009E8584608D879E876EC2EF85F8899F017C
:100F70002E5F3F4F2F87388BA0807A9452C1EF8528
:100F8000F889CF0102968F87988BA080B180198A4B
:100F9000F5018081882349F099899F5F998BF5013C
:100FA000E90FF11D80818823B9F78D859E8583FF28
:100FB0000BC0252D332727FD30954989842F99278C
:100FC000281739070CF4598A8989781A2AC18D851E
:100FD0009E8582FF0CC0EF85F8899F012C5F3F4FF3
:100FE0002F87388B20813181428153810DC0EF855D
:100FF000F889CF0102968F87988B808191819C011F
:10100000442737FD4095542F59016A0155236CF44C
:101010008D859E8582608D879E87D094C094B09484
:10102000A094A11CB11CC11CD11C8D859E858F7BF9
:101030002EC098E0998B0BC08D859E8580648D872E
:101040009E870F2EF8E76F2EF02DE0E1E98B8D855E
:101050009E8582FF0CC0EF85F8899F012C5F3F4F72
:101060002F87388B20813181428153810BC0EF85DE
:10107000F889CF0102968F87988B808191819C019E
:101080004427552759016A018D859E858F7C8D8760
:101090009E87FE013196EA8BFB8BF989EF2EFF24A8
:1010A00000271127C601B501A80197010E94A50ECE
:1010B000DC01CB01EA89FB8980838A301CF0860D34
:1010C000815204C0EA89FB898081805DEA89FB89BD
:1010D0008193EA8BFB8BC601B501A80197010E94A1
:1010E000A50E59016A012115310541055105D1F6B9
:1010F000CE010196AA88A81A8D859E85827390706C
:10110000892B09F07A948D859E8586FF0FC0872DE7
:10111000992787FD9095F989F03131F40F2EFEEF74
:101120007F2EF02D780E02C0782E7A944D855E8544
:1011300043FF0FC0252D332727FD30958A2D992792
:10114000821793072CF0CA01877F8D879E8701C085
:101150005A188D859E8583FF02C0751801C07A18C4
:101160008D859E8580789170892B69F4872D7A947E
:1011700018164CF4B40180E290E00E94CF0B872D4A
:101180007A941816BCF38D859E8581FF04C0B40146
:101190008DE290E00FC08D859E8584FF04C0B40170
:1011A0008BE290E007C08D859E8585FF05C0B40168
:1011B00080E290E00E94CF0B8D859E8586FF0FC058
:1011C000B40180E390E00E94CF0B2989203139F4EB
:1011D000862D992787FD9095B4010E94CF0B8D85B0
:1011E0009E8590FF0DC0872D7A9418164CF4B4019B
:1011F00080E390E00E94CF0B872D7A941816BCF301
:101200008D859E8583FF0DC0852D5A9418164CF44C
:10121000B40180E390E00E94CF0B852D5A941816FC
:10122000BCF38D85807869F4872D7A9418164CF478
:10123000B40180E290E00E94CF0B872D7A941816BB
:10124000BCF333E6631629F48A2D992787FD909520
:10125000AEC043E76416B9F489898150898B8F3F0A
:1012600009F4C3C0F5018081992787FD9095089402
:10127000A11CB11CB4010E94CF0B99899150998B8C
:101280009F3F81F7B2C08D859E8591FF94C092FFEC
:101290001BC01414ACF44A94EFEF4E1679F0EA89AF
:1012A000FB898191EA8BFB8B992787FD9095B4018F
:1012B0000E94CF0B4A94FFEF4F1689F744240FC0CA
:1012C000B40180E390E009C0EA89FB898191EA8B4F
:1012D000FB8B992787FD9095B4010E94CF0B1514C5
:1012E0002CF4B4018EE290E00E94CF0B8D859E8598
:1012F00092FF15C0842D439488238CF4852D5A9435
:1013000018166CF4B40180E390E00E94CF0B842D9A
:101310004394882324F4852D5A9418169CF3EA8963
:10132000FB89A190EA8BFB8BAA20B1F0852D5A9402
:10133000181694F48A2D992787FD9095B4010E9480
:10134000CF0BEA89FB89A190EA8BFB8BAA2021F0C5
:10135000852D5A94181674F38D859E8592FD45C08F
:10136000862D992787FD9095B4010E94CF0B4A9452
:101370003CF4B4018DE290E00E94CF0B419405C093
:10138000B4018BE290E00E94CF0B842D992787FD5A
:1013900090956AE070E00E94920EDC01CB015C0146
:1013A0006D01C096B4010E94CF0BC601C096B40176
:1013B0000E94CF0B1AC0CE0101962A893B892817BB
:1013C000390799F08E010F5F1F4FEA89FB898291DF
:1013D000EA8BFB8B992787FD9095B4010E94CF0B78
:1013E0002A893B892017310781F78D858078A9F0FC
:1013F000872D7A9418168CF4B40180E290E00E9454
:10140000CF0B872D7A941816BCF307C0862D992729
:1014100087FD9095B4010E94CF0B1D861E8613C0D8
:1014200035E2631649F481E090E08D879E8755246C
:10143000752C4AE0498B07C0862D992787FD90952A
:10144000B4010E94CF0BF401838183FF06C0F10138
:101450000894211C311C649003C0F10161901F01AC
:10146000662009F0BACB8C899D890E94A10CF401F9
:101470008681978165960FB6F894DEBF0FBECDBF0B
:10148000DF91CF911F910F91FF90EF90DF90CF9060
:10149000BF90AF909F908F907F906F905F904F9094
:1014A0003F902F9008952F923F924F925F926F92AC
:1014B0007F928F929F92AF92BF92CF92DF92EF92E4
:1014C000FF920F931F93CF93DF93CDB7DEB726978D
:1014D0000FB6F894DEBF0FBECDBF3C015A016B01C1
:1014E0002D83280122230CF41D822D81263214F035
:1014F00065E26D831E8243010F2EF8E22F2E332406
:10150000F02D260C371C20E030E040E050E0C60112
:10151000B5010E949F0D882354F4F20180819181CE
:10152000826080839183D7FAD094D7F8D094AE01AB
:101530004F5F5F4FC601B5010E940C0E5B016C014D
:1015400020E030E040E050E069817A818B819C812D
:101550000E949F0D882309F44AC081012CC02DEC04
:101560003CEC4CEC5DE369817A818B819C810E942B
:10157000410EDC01CB01AE014F5F5F4FBC01CD01DD
:101580000E940C0EDC01CB012AE939E941E251E469
:10159000BC01CD010E94410EDC01CB01BC01CD019B
:1015A0000E94780DDC01CB01805DF80182938F01F0
:1015B000FE81FF5FFE8320E030E040E050E0698183
:1015C0007A818B819C810E949F0D882319F080165F
:1015D000910628F20215130580F5F80181918F011B
:1015E000F40181934F0102151305B8F326C020E0E2
:1015F00030E040E050E0C601B5010E94A20D18168F
:10160000E4F405C057016801FE81F150FE8320E03B
:1016100030E040E251E4C601B5010E94410E7B0179
:101620008C0120E030E040E85FE30E949F0D8823BA
:101630004CF3E982FA820B831C83F20140815181D1
:1016400053FF16C0FE81FD3F9CF08F2F992787FD29
:1016500090956D81262F332727FD30952F5F3F4FC3
:10166000821793072CF4CA019460F201808391835E
:10167000F2018081918192FD03C0FD81FF5FFD83B6
:101680002D81822F992787FD90958301080F191FBF
:10169000F2018081918192FF07C0FE818F2F9927EF
:1016A00087FD9095080F191F0615170510F4F30113
:1016B00057C00815190520F18214930408F520E09D
:1016C00030E040E251E4C601B5010E94410EAE0196
:1016D0004F5F5F4F0E940C0E5B016C0169817A8144
:1016E0008B819C810E94780DDC01CB01805DF4012F
:1016F00081934F010E171F0718F0E215F305F8F25A
:101700000215130518F0F30117A22BC04801F801C8
:1017100080818B5F80838A3314F120E331E3F80109
:1017200020836016710628F482918F018F5F808379
:1017300012C0F8013083FE81FF5FFE83F2018081D9
:10174000918192FF08C06814790410F4F401208399
:101750000894811C911CF80180818A3304F7F401FC
:101760001082FE818F2F992787FD909526960FB6C0
:10177000F894DEBF0FBECDBFDF91CF911F910F91C7
:10178000FF90EF90DF90CF90BF90AF909F908F90A1
:101790007F906F905F904F903F902F9008950F93A0
:1017A0001F93CF93DF938C01EB018B81992781FFEE
:1017B00022C082FF14C02E813F814C815D8124179D
:1017C00035073CF4A881B9810D93A883B9832E8194
:1017D0003F812F5F3F4F2E833F83C8010EC0E885B6
:1017E000F985802F0995892B31F4EE81FF8131969F
:1017F000EE83FF83F2CF8FEF9FEFDF91CF911F91A9
:101800000F910895CF93DF939C01029710F422E08B
:1018100030E040E050E0E0911702F0911802BF0183
:10182000DA013097B1F0808191818217930709F432
:101830007CC02817390738F44115510519F0841771
:10184000950708F4AC01DF010280F381E02D3097A9
:1018500051F741155105B1F0DA01A21BB30B1497F2
:1018600008F49A01FB01A0E0B0E0672B59F0608119
:10187000718164177507B9F1DF010280F381E02DF2
:101880003097A9F740911502509116024115510564
:1018900041F44091FD005091FE0050931602409398
:1018A0001502A091FF00B0910001109799F0FA0184
:1018B000CA01820F931F02968A179B0740F49093E8
:1018C00016028093150221933193CF0137C080E037
:1018D00090E034C0ADB7BEB7E091FB00F091FC00E2
:1018E000AE1BBF0BE4CF2417350769F0421B530B27
:1018F000EF01C40FD51F29933993425050404083C4
:101900005183CE011BC0109749F02281338112967A
:101910002D933C931397CF01029610C042815381BF
:101920005093180240931702F6CF109771F7228157
:1019300033813093180220931702EDCFDF91CF91BE
:101940000895CF93DF93009709F45BC0DC011297F1
:1019500012961D921C921397809117029091180273
:101960000097D1F1FC0140E050E0EA17FB0710F5C9
:10197000AF010280F381E02D3097B9F7EA01AA8325
:10198000BB83FA01329628813981E20FF31FEA17EF
:10199000FB07B9F56D917C911197260F371F2E5FCC
:1019A0003F4F2883398312964D915C9113974A8358
:1019B0005B8327C0ED011296ED93FC9313972D9155
:1019C0003C911197C20FD31FCE0102968E179F072D
:1019D00041F04115510591F6B0931802A0931702FA
:1019E00010C06A817B81260F371F2E5F3F4F2D93DA
:1019F0003C9311972281338112962D933C93139738
:101A0000E8CFDF91CF9108950F931F93CF93DF938A
:101A1000CDB7DEB72C970FB6F894DEBF0FBECDBFA3
:101A20000B891C89ED89FE8936E03C8309831A8382
:101A30004FEF5FE74D835E83AE01495E5F4FBF01AD
:101A4000CE0101960E94BF052F813885020F131F1A
:101A5000D8011C922C960FB6F894DEBF0FBECDBFF6
:101A6000DF91CF911F910F9108955058192EA6D054
:101A700001D08CC0BA176207730784079507B1F1CC
:101A800088F40EF410940B2EBA2FA02D062E622F80
:101A9000202D072E732F302D082E842F402D092E38
:101AA000952F502DFF275523B9F0591B49F0573E6C
:101AB00098F0469537952795A795F0405395C9F727
:101AC00076F0BA0F621F731F841F30F487957795E5
:101AD0006795B795F040939517FA0F2E0895BF1BA1
:101AE000BB27BA0B620B730B840BF6CFDEF682C0FA
:101AF00097FB70D09F3738F0FEE9F91B982F872F9E
:101B0000762F6B2F05C073C096958795779567954F
:101B1000F150D0F73EF490958095709561957F4F88
:101B20008F4F9F4F0895E89403C097FB0EF4F3DFA7
:101B3000B62F672F782F892F9EE9002427C00ED05B
:101B40005EF004C00BD026F001C008D019F020F4DC
:101B50008FEF089580E0089581E0089597FB092EA6
:101B6000052600F868942DD0E89407FC07C062179A
:101B700073078407950721F008F40094079498945C
:101B800008959A95BB0F661F771F881F112499230C
:101B9000A1F08823B2F79F3F59F0BB0F48F421F41E
:101BA000002011F460FF04C06F5F7F4F8F4F9F4F85
:101BB000881F9795879597F9089519C0052E0926CE
:101BC00007FA440F551F5F3F79F0AA27A51708F0C1
:101BD00051E04795880F991F9F3F31F0BB27B917F8
:101BE00008F091E0879508959F919F9198C066278E
:101BF00077278827992708959F3F59F4803C49F417
:101C000081E0992708959068892387238623839507
:101C1000B9F388279927089597FBDCDFCF93DF93EB
:101C2000D52FC42F55274427332722279923D9F0AE
:101C30009F37C8F0F92FAADF592F482F372F262FAB
:101C4000F63968F455DF71DFC030CD0721F06993B4
:101C50007993899399939058DF91CF9107CF9927E2
:101C6000882777276627C030CD0721F0299339933D
:101C700049935993DF91CF9189CF592F482F372F0F
:101C8000262F9CDF01D082CF992339F0552329F0EC
:101C90009F575F57950F13F4CAF1ACCF91589F3FF0
:101CA000E1F3A62F00241124BB2766275527F8E06F
:101CB000A69520F4020E131EB41F651F220F331FBA
:101CC000441F551FFA95A1F7F8E0E72F7727F8E0B2
:101CD000E69520F4130EB41F651F7A1F330F441FBF
:101CE000551FAA1FFA95A1F7F82F8827F69520F41B
:101CF000B40F651F7A1F8E1F440F551FAA1FEE1FBA
:101D0000FF23A1F788231AF4939539F408C0000C37
:101D1000111CBB1F661F771F881F012808959FEFA6
:101D200080EC089597FB092E07260AD077FD04D092
:101D300065D006D000201AF4709561957F4F089504
:101D4000F6F7909581959F4F0895A1E21A2EAA1B50
:101D5000BB1BFD010DC0AA1FBB1FEE1FFF1FA2175B
:101D6000B307E407F50720F0A21BB30BE40BF50B58
:101D7000661F771F881F991F1A9469F760957095E1
:101D8000809590959B01AC01BD01CF0108952F92E4
:101D90003F924F925F926F927F928F929F92AF92FB
:101DA000BF92CF92DF92EF92FF920F931F93CF9348
:101DB000DF93CDB7DEB7CA1BDB0B0FB6F894DEBFDF
:101DC0000FBECDBF09942A88398848885F846E8405
:101DD0007D848C849B84AA84B984C884DF80EE804F
:101DE000FD800C811B81AA81B981CE0FD11D0FB658
:101DF000F894DEBF0FBECDBFED010895AA1BBB1B3B
:101E000051E107C0AA1FBB1FA617B70710F0A61BFA
:101E1000B70B881F991F5A95A9F780959095BC011B
:041E2000CD01089553
:101E240053746172746269742074696D656F75743A
:101E34000D0A004D525320722D7720646966666541
:101E440072656E7420253032782E253032780D0A72
:101E54000041445220722D7720646966666572657C
:101E64006E7420253034782E253034780D0A0070B5
:101E74006F73636C6B203D2030210D0A00706F730B
:101E8400203D20253038780D0A00646567203D2008
:101E940025660D0A00726573746172740D0A007010
:101EA4003133203D20253034780D0A00703337203B
:101EB4003D20253034780D0A00A00F2000D90200FF
:021EC40000001C
:00000001FF
