:100000000C94A3010C94C0010C94C0010C94C00189
:100010000C94C0010C94C0010C94C0010C94C0015C
:100020000C94C0010C94C0010C94EB010C94C00121
:100030000C94C0010C94C0010C94C0010C94C0013C
:100040000C94C0010C94C0010C940A070C94970600
:100050000C94C0010C94FD130C94C0010C94C001CD
:100060000C94C0010C94C0010C94C0010C94FF0EC0
:100070000C94C0010C94C0010C94DE060C9447064D
:100080000C94C0010C94C0010C94C001A105C205E0
:100090000906FE053D063D063D063D063D063D06BC
:1000A0003D063D063D063D063D063D06E105EC05E7
:1000B0001B0612063D063D063D063D063D063D0675
:1000C0003D063D063D063D063D063D0649055F05EC
:1000D00075058B053D063D063D063D063D063D0684
:1000E0003D063D063D063D063D063D063D063D06F8
:1000F00042053D063D063D063D063D063D063D06E4
:100100003D063D063D063D063F053D063D063D06D6
:100110003D063D063D063D063D063D063D063D06C7
:100120003D063D063D063D063D063D063606CD0A2A
:10013000EB0A8C0E190B370B610B8B0B8C0EC50B5E
:10014000EC0B8C0E8C0E8C0E8C0E8C0E160C8C0EFA
:10015000420C600C7E0C8C0E8C0E8C0E9D0CBE0C1A
:10016000DC0C270D330D7E0E650D680D8D0DB20D67
:100170007E0ECB0DEB0D7E0E7E0E7E0E7E0E7E0E67
:10018000100E7E0E360E390E430E7E0E7E0E7E0E45
:10019000460E490E620E48107A106810681048101A
:1001A00048103A103A107F818486888A8B8B8C8B1A
:1001B0008B8A888684817F7D7A7876747373727374
:1001C000737476787A7D7F84898D919496989898C7
:1001D0009694918D89847F7A75716D6A686666667A
:1001E000686A6D71757A7F868E949A9FA2A4A5A481
:1001F000A29F9A948E867F78706A645F5C5A595A7F
:100200005C5F646A70787F89929BA3A9AEB1B2B13A
:10021000AEA9A39B92897F756C635B55504D4C4D85
:1002200050555B636C757F8B97A2ACB4BABDBFBDF4
:10023000BAB4ACA2978B7F73675C524A4441404189
:10024000444A525C67737F8E9CA9B5BEC5CACBCAAF
:10025000C5BEB5A99C8E7F70625549403934333490
:100260003940495562707F90A1B0BEC9D1D6D8D669
:10027000D1C9BEB0A1907F6E5D4E40352D28262895
:100280002D35404E5D6E7F93A6B7C7D3DDE3E5E322
:10029000DDD3C7B7A6937F6B5847372B211B191B9C
:1002A000212B3747586B7F95ABBFD0DEE9EFF1EFDD
:1002B000E9DED0BFAB957F69533F2E20150F0D0FA0
:1002C00015202E3F53697F98B0C6D9E9F4FCFEFC97
:1002D000F4E9D9C6B0987F664E3825150A020002A7
:1002E0000A1525384E6600000000000000000000DE
:1002F00000000000000000000000000000000000FE
:1003000000000000000001010000000000000000EB
:1003100000010101010101010000000000000000D6
:1003200000010101010101010000000000000000C6
:1003300000010101010101010000000000000000B6
:1003400000010101010111241FBECFEFD0E1DEBF8A
:10035000CDBF11E0A0E0B1E0EAEBF5E400E00BBFB7
:1003600002C007900D92AC3BB107D9F713E0ACEB9C
:10037000B1E001C01D92A938B107E1F70C94460421
:100380000C94C20178941F920F920FB60F92112411
:100390002F933F934F935F936F937F938F939F938D
:1003A000AF93BF93EF93FF9360E071E080E090E044
:1003B0000E940208FF91EF91BF91AF919F918F91A1
:1003C0007F916F915F914F913F912F910F900FBE51
:1003D0000F901F90189578941F920F920FB60F925E
:1003E00011242F933F934F935F936F937F938F933A
:1003F0009F93AF93BF93EF93FF930E94DB0F60E156
:1004000070E081EB92E00E944215FF91EF91BF9165
:10041000AF919F918F917F916F915F914F913F919C
:100420002F910F900FBE0F901F9018950895CF93A6
:1004300082B18E7E82B91C9A119A8A988B9A81B366
:100440008F7081BB82B3806F82BB80916100807F9F
:100450008093610087B38F6087BB80916400836065
:100460008093640084B3836084BB8AB38F608ABB4B
:1004700088B3857F88BB88B3856088BB8091650021
:100480008D7F809365008091650081608093650019
:10049000A998A89A8BB38A7F8BBB8BB38A608BBBDE
:1004A00084E00E94E40981B1992724E0969587951C
:1004B0002A95E1F7C1E08C278C238093C4028091B8
:1004C00065008E7F809365008091650082608093D7
:1004D0006500A898A99A8BB3857F8BBB8BB3856089
:1004E0008BBB80B382958F708095982F9F7090936F
:1004F000BC0182708093C5028C2F0E94E4090E9487
:1005000033078091C402882311F04C2F01C042E0D0
:1005100024E630E061E070E081EB92E00E94291572
:100520000E9446148091BC0180FF02C00E94711499
:100530000E943A140E94BC100E94120A0E944708AE
:10054000C098C19A85E00E94E409789481E00E94F5
:10055000E409CF910895A2E2B0E0E1EBF2E00C945F
:100560006F2211E019A31AA3812F0E947411812F09
:100570000E945711612F80E00E941512612F812F78
:100580000E94151260E0862F0E947B1160E0812F8F
:100590000E947B116FE770E080E090E00E94310ADA
:1005A0006FE770E081E090E00E94310A80E00E94F5
:1005B0007411EE2477248824992461E08E2D0E9402
:1005C000A7110E2D11276FE770E0C8010E94310AB4
:1005D00061E08E2D0E947B1182E00E94E409C80137
:1005E0000E944014F82E99279F938F939F928F9289
:1005F0001F930F9384E191E09F938F936E01089472
:10060000C11CD11CDF92CF920E946D1DB60180E00B
:1006100090E00E94020831E2A32EB12CAC0EBD1E68
:10062000F801EA0DFB1D90E02DB73EB7265F3F4F66
:100630000FB6F8943EBF0FBE2DBF8081882331F0E6
:1006400037E8F30E8CE08F1508F091E0908368E8AE
:1006500070E0C8010E94310A61E08E2D0E947B117A
:1006600082E00E94E409C8010E944014F82E9927F4
:100670009F938F939F928F921F930F9386E291E0A7
:100680009F938F93DF92CF920E946D1DB60180E001
:1006900090E00E940208F801EA0DFB1D90E02DB7E2
:1006A0003EB7265F3F4F0FB6F8943EBF0FBE2DBF3B
:1006B0008081882331F03EE7F30E8CE08F1508F03F
:1006C00091E0908368E770E0C8010E94310A60E021
:1006D0008E2D0E947B1182E00E94E409C8010E94D5
:1006E0004014F82E99279F938F939F928F921F9378
:1006F0000F9388E391E09F938F93DF92CF920E94B4
:100700006D1DB60180E090E00E940208F801EA0D3C
:10071000FB1D90E02DB73EB7265F3F4F0FB6F89414
:100720003EBF0FBE2DBF8081882331F03EE8F30E1F
:100730008CE08F1508F091E0908373940894811CED
:10074000911CE1E0E71508F038CFEE0EEE1508F049
:1007500031CF89A1882309F4A99889A1882309F4B4
:10076000A89AF5018181882329F4809165008D7F05
:1007700080936500F5018181882329F480916500CB
:1007800081608093650020E030E089A1882321F01A
:10079000F5018181811121E0C901EDE0A2960C945F
:1007A0008B22982F8233B0F48091C402882391F079
:1007B000913081F4413B84E0580780E0680780E095
:1007C000780740F4409351035093520360935303CE
:1007D0007093540308950895ADE0B0E0E2EFF3E0C4
:1007E0000C946E22282F862ECC24DD24760183E5FE
:1007F0008983822F6AE00E9429228A83822F0E94A5
:1008000029229B832233F0F58091C4028823D1F101
:10081000213041F4C0905103D0905203E090530333
:10082000F090540399244CE0A42EB12C3E0108947E
:10083000611C711C83010A0D1B1DC701B6012AE052
:1008400030E040E050E00E944822DC01CB01805DB6
:10085000F8018083C701B6012AE030E040E050E0B3
:100860000E94482269017A0193940894A108B10872
:10087000F9E0F915D8F693014DE0682D81EB92E08F
:100880000E94D115EEE02D960C948A22CBEED0E199
:10089000DEBFCDBF44245524E1E0DE2EEE24FF244C
:1008A00087012224298A622C2A8A722C4701580146
:1008B0002C8A322C0E9416020E9417026AE471E010
:1008C000C2010E9402086FE471E081E090E00E94A2
:1008D00002080E94AB02882331F4C29AC3988D2D7E
:1008E0000E94741102C0C298C39A0E94520A40E04A
:1008F00050E060E070E080E00E94A81381E00E9478
:10090000A11381E00E94D31188E190E02EE00FB6A0
:10091000F894A89581BD0FBE21BDA89580B382959E
:100920008F7080958F708093BC01992773E09695A6
:1009300087957A95E1F781700E9441120E94DE133B
:10094000882321F0C198C09A81E002C0C098C19A62
:100950000E946C118091C3028111C29A0894411CBB
:10096000511C81EC48168DE5580670F0442455243E
:100970008091C402882341F024E531E041E06FEF2B
:1009800081EB92E00E94D1159E012F5F3F4F40E125
:1009900060E070E081EB92E00E945415C82E1B8A43
:1009A000CA94882309F46EC1FE019B89E90FF11DE9
:1009B00021819F5F9B8B772009F453C081E07816DB
:1009C00051F48AE0289FC001112460E2362E380ECF
:1009D00052E0752E52C192E0791631F4320E80ED5C
:1009E000380E43E0742E49C192E0971508F045C1D6
:1009F0002F3371F48091C402882389F18091BB0266
:100A0000813069F56091BA02832D0E94EC0327C002
:100A100020532A3020F5D501C40133E0880F991FF7
:100A2000AA1FBB1F3A95D1F7880D991DAA1DBB1DA2
:100A3000880E991EAA1EBB1E820E911CA11CB11C01
:100A40008C898F5F8C8B8A3008F417C18091C40227
:100A5000882329F0B501A401832D0E94D1037724B6
:100A60000CC1822F9927AA27BB27FC01B197E1353A
:100A7000F10508F002C1EA5BFF4F0C94A1220E942D
:100A8000DB13FBC0B1E07B2E1C8A8824992454011F
:100A9000F4C08091C402882349F0E0905503F0909F
:100AA00056030091570310915803E7C0E09071037B
:100AB000F09072030091730310917403DEC0809173
:100AC000C402882349F0E0905903F0905A03009142
:100AD0005B0310915C03D1C0E0907503F090760346
:100AE0000091770310917803C8C08091C4028823D5
:100AF00049F0E0905D03F0905E0300915F03109178
:100B00006003BBC0E0907903F0907A0300917B030F
:100B100010917C03B2C08091C402882349F0E09018
:100B20006103F09062030091630310916403A5C018
:100B3000E0907D03F0907E0300917F03109180038D
:100B40009CC08091C402882309F497C0A1E0DA2EEA
:100B50002D2C8091510390915203A0915303B09199
:100B60005403B801A701481B590B6A0B7B0B77FF95
:100B70004EC070956095509541955F4F6F4F7F4F78
:100B8000DD2445C08091C402882309F476C091E039
:100B9000998BDD244091510350915203609153038E
:100BA000709154034E0D5F1D601F711F77FF2FC0A2
:100BB00070956095509541955F4F6F4F7F4FD92E3F
:100BC00026C08091C402882309F457C02224898951
:100BD000882309F052C009C08091C402882309F417
:100BE0004CC0198A222009F048C08091510390918D
:100BF0005203A0915303B09154032CC08091C402BE
:100C00008823D9F5F1E0DF2E6D2CB801A7018D2DD9
:100C10002AC08091C402882381F591E09A8BB801A3
:100C2000A70121C08091C402882339F5682E8A89E2
:100C3000882319F507C08091C4028823F1F48A8BB8
:100C40006620D9F480916D0390916E03A0916F039B
:100C5000B09170039C01AD015F77BA01A901BB0F90
:100C6000880B982FDC010E94A81307C066E571E08D
:100C700080E090E00E940208FFCF8C2DCA94882368
:100C800009F092CE0E945B0A0E94C51346CE1F92C5
:100C90000F920FB60F9211242F933F934F935F93B0
:100CA0006F937F938F939F93AF93BF93EF93FF9334
:100CB000CF93DF93CDB7DEB72197DEBFCDBFBE01A7
:100CC0006F5F7F4F85EC91E00E947109892B69F07D
:100CD000898180939C0010927E0210927D02809107
:100CE0009A00806280939A000BC080919A008F7D59
:100CF00080939A0081E090E090937E0280937D0241
:100D00002196F894DEBFCDBFDF91CF91FF91EF9197
:100D1000BF91AF919F918F917F916F915F914F9113
:100D20003F912F910F900FBE0F901F9018951F921B
:100D30000F920FB60F9211242F933F934F935F930F
:100D40006F937F938F939F93AF93BF93EF93FF9393
:100D5000CF93DF93CDB7DEB72197DEBFCDBFBE0106
:100D60006F5F7F4F85ED91E00E947109892B41F003
:100D700089818CB91092800210927F02559A07C027
:100D8000559881E090E09093800280937F022196B5
:100D9000F894DEBFCDBFDF91CF91FF91EF91BF916E
:100DA000AF919F918F917F916F915F914F913F9103
:100DB0002F910F900FBE0F901F9018951F920F92BA
:100DC0000FB60F9211242F933F934F935F936F931E
:100DD0007F938F939F93AF93BF93EF93FF93609114
:100DE0009C008DEB91E00E94030980919B0087FDA0
:100DF000F6CFFF91EF91BF91AF919F918F917F912E
:100E00006F915F914F913F912F910F900FBE0F9077
:100E10001F9018951F920F920FB60F9211242F93C7
:100E20003F934F935F936F937F938F939F93AF9372
:100E3000BF93EF93FF936CB18DEC91E00E94030997
:100E40005F99F9CFFF91EF91BF91AF919F918F91F2
:100E50007F916F915F914F913F912F910F900FBEB6
:100E60000F901F90189598EB90939A0086E08093CE
:100E70009D009AB98093950087E68093990010921F
:100E8000980089B9109290004DED51E060E470E057
:100E90008DEB91E00E94DA084DE152E060E170E0F4
:100EA00085EC91E00E94DA084DE252E060E470E0E7
:100EB0008DEC91E00E94DA084DE652E060E170E0CE
:100EC00085ED91E00E94DA0881E090E090937E0247
:100ED00080937D029093800280937F02089580E446
:100EE00090E00895892B19F48DEB91E002C08DEC10
:100EF00091E00E94E4080895892B19F48DEB91E0AC
:100F000002C08DEC91E00E9471090895A1E0B0E06B
:100F1000ECE8F7E00C9472225C017B016A0100E0CE
:100F200010E00CC08981F70181937F01882371F063
:100F3000C8010F5F1F4F8C159D0544F4BE016F5F04
:100F40007F4FC5010E947C07019761F3C801EAE069
:100F500021960C948E2280E090E0089580E190E04C
:100F60000895892B19F485EC91E002C085ED91E09C
:100F70000E94E4080895A1E0B0E0E1ECF7E00C94F1
:100F800074227C0169838C01080F191FF801E35852
:100F9000FD4F80819181892B19F0108211821FC031
:100FA000E114F10429F495ECC92E91E0D92E04C086
:100FB00085EDC82E81E0D82E6981C6010E94030903
:100FC00003581D4FF80180819181892BA9F0BE0142
:100FD0006F5F7F4FC6010E947109892B69F089817B
:100FE000EF2841F480939C0080919A008062809366
:100FF0009A0002C08CB9559A81E090E0E8E0219611
:101000000C949022EF92FF920F931F93CF93DF9354
:101010007C01EB0100E010E08881882351F0899188
:10102000682FC7010E94BB070F5F1F4F888188236D
:10103000B1F7C801E6E0CDB7DEB70C949222EF928B
:10104000FF920F931F93CF93DF938C01EB01EE245C
:10105000FF246991662349F0C8010E94BB070894E8
:10106000E11CF11C69916623B9F76DE0C8010E948B
:10107000BB076AE0C8010E94BB0782E090E0E80E6F
:10108000F91EC701E6E0CDB7DEB70C94922280E7E7
:10109000809370000895982FFA0184E28093740081
:1010A0008091740087FFFCCF80917100883019F027
:1010B00081E090E00895990F9093730084E8809305
:1010C00074008091740087FFFCCF8091710088319B
:1010D00031F082E090E0089583E090E00895862F5B
:1010E0006150882391F081918093730084E880930C
:1010F00074008091740087FFFCCF8091710088326A
:1011000059F7862F6150882371F784E98093740022
:1011100080E090E008950895982FFA0184EA809382
:1011200074008091740087FFFCCF8091710088303B
:1011300019F081E090E00895892F9927880F991F71
:1011400081608093730084E88093740080917400C0
:1011500087FFFCCF80917100803419F084E090E02B
:101160000895862F61508823F9F0662311F084ECEE
:1011700001C084E8809374008091740087FFFCCFE5
:1011800080917100662311F0803521F4662329F4E3
:10119000883519F085E090E008958091730081937F
:1011A000862F6150882309F784E98093740080E0DA
:1011B00090E00895FC01608371831282138214828F
:1011C00015824683578308950F931F938C010E94C5
:1011D000F3089C01F80180819181821B930B019798
:1011E0001F910F910895FC01848195814081518167
:1011F000840F951F22813381821B930B0197BA01C3
:101200000E9435220895CF93DF93DC01E0E0F0E007
:101210007FB7F89412964D915C9113979A012F5FC6
:101220003F4F8D919C9111972817390714F020E0BA
:1012300030E014968D919C9115972817390769F025
:101240001696ED91FC911797E40FF51F60831296A7
:101250002D933C931397E1E0F0E07FBFCF01DF9146
:10126000CF910895A0E0B0E0E8E3F9E00C94732298
:101270008C01EB017A01CC24DD24BFB6F8940E94E6
:10128000F3088C179D0734F1F801228133812197EF
:10129000FFEFCF3FDF07C1F0F801A681B781A20FB2
:1012A000B31FF70181917F018C932F5F3F4FF801AE
:1012B000808191812817390714F020E030E02197D0
:1012C000FFEFCF3FDF0741F7F8012283338381E04F
:1012D000C82ED12CBFBEC601E9E0CDB7DEB70C9455
:1012E0008F220F931F93CF93DF93DC018B0140E09C
:1012F00050E06FB7F89412968D919C9113971496C5
:101300002D913C91159782179307E9F01696ED9170
:10131000FC911797E20FF31F8081F80180831496E8
:101320002D913C9115972F5F3F4F8D919C91119777
:101330002817390714F020E030E014962D933C93E1
:10134000159741E050E06FBFCA01DF91CF911F9127
:101350000F910895FC01DB0140E050E06FB7F89475
:1013600082819381248135818217930749F0068019
:10137000F781E02DE20FF31F80818C9341E050E074
:101380006FBFCA010895A2E0B0E0E9ECF9E00C9467
:101390007A22282F19828981821790F41A828A81F1
:1013A000992704973CF48A818F5F8A838A819927E1
:1013B0000497CCF389818F5F89838981821770F3C9
:1013C000E2E022960C949622A1E0B0E0EAEEF9E089
:1013D0000C947922182F11501F3F29F084E60E94A7
:1013E000F7091150D8F7E3E021960C94952220914B
:1013F0005D0130915E01E22FF32F3197F1F78A956D
:10140000D1F708958A3010F4805D01C0895C992776
:101410000895FB01882311F4608101C06491862F37
:101420009927089587B3806C87BBBC9A1BBC8FEF4C
:101430008ABD8FE481BF19BC80E888BD1092790015
:101440008093780089E28FBD10927A0081E18EBD91
:1014500089E183BF08959C01832F99278BBD2ABD05
:101460000895272F3327892B19F429BD68BD0895C6
:10147000209379006093780008950895892B29F4CA
:1014800088B5282F332789B506C080917800282F8A
:101490003327809179009927982F8827282B392B7B
:1014A000C901089510929102109281020E949D0A32
:1014B0000E949E0A0895A1E0B0E0E1E6FAE00C94F3
:1014C0007A22BE016F5F7F4F80E090E00E947C0730
:1014D000892B11F199819D3029F40E949F0A0E9465
:1014E0009D0A18C09B3129F410929102109281023A
:1014F00011C0809191028E3068F4E82FFF27EF57DA
:10150000FD4F90838F5F80939102E82FFF27EF5765
:10151000FD4F10820E949E0AE2E021960C949622D2
:10152000BC0180E090E00E94020880E090E00E9410
:10153000B10718161906CCF3089508950895AAE185
:10154000B0E0E5EAFAE00C947822809191028823D9
:1015500009F4E2C38091810299278337910569F0EC
:10156000843791052CF48736910509F45FC2D4C302
:101570008637910509F4CCC3CFC3809182029927A5
:10158000AA27BB27FC01E156F040EA31F10508F03B
:10159000C3C3E956FF4F0C94A122CE0141969F93FD
:1015A0008F938FE591E09F938F9383E892E09F93D1
:1015B0008F930E949E1D2DB73EB72A5F3F4F0FB6F7
:1015C000F8943EBF0FBE2DBF019709F0A5C38989CE
:1015D0000E94D311A1C3CE0141969F938F93CE0158
:1015E00043969F938F9382E691E09F938F9383E836
:1015F00092E09F938F930E949E1D2DB73EB7285F68
:101600003F4F0FB6F8943EBF0FBE2DBF029709F0B3
:1016100083C38B899C898130910521F489890E943B
:1016200000127AC3029709F077C389890E940712D2
:1016300073C3CE0141969F938F938FE591E09F9363
:101640008F9383E892E09F938F930E949E1D2DB706
:101650003EB72A5F3F4F0FB6F8943EBF0FBE2DBF77
:10166000019709F059C389890E940E1255C3CE0112
:1016700041969F938F93CE0143969F938F9388E6D5
:1016800091E09F938F9383E892E09F938F930E94C2
:101690009E1D2DB73EB7285F3F4F0FB6F8943EBF53
:1016A0000FBE2DBF029709F037C38B899C89019724
:1016B000029708F031C38B89815069890E94151205
:1016C0002BC3CE0141969F938F93CE0143969F9358
:1016D0008F9388E691E09F938F9383E892E09F93A6
:1016E0008F930E949E1D2DB73EB7285F3F4F0FB6C8
:1016F000F8943EBF0FBE2DBF029709F00DC38B8932
:101700009C890197029708F007C38B8981506989EA
:101710000E94A71101C3CE0145969F938F938EE639
:1017200091E09F938F9383E892E09F938F930E9421
:101730009E1D9C018DB79EB706960FB6F8949EBF6E
:101740000FBE8DBF2130310509F0E6C240E050E008
:101750008D899E89AF89B88DB7FFA901498B5A8BB6
:10176000B7FF0BC0B095A095909581959F4FAF4F57
:10177000BF4F8D8B9E8BAF8BB88F4D895E896F89E4
:10178000788D89890E944812C7C2CE0149969F93DD
:101790008F93CE0141969F938F9388E691E09F931C
:1017A0008F9383E892E09F938F930E949E1D2DB7A5
:1017B0003EB7285F3F4F0FB6F8943EBF0FBE2DBF18
:1017C000029709F0A9C2E989FA89EF5AFC4F898D7D
:1017D00080830E945214A0C2CE0141969F938F93A2
:1017E000CE0143969F938F9388E691E09F938F93CA
:1017F00083E892E09F938F930E949E1D2DB73EB782
:10180000285F3F4F0FB6F8943EBF0FBE2DBF029723
:1018100009F082C28B899C890197029708F07CC2EB
:101820008B89815069890E947B1176C2CE014196D5
:101830009F938F93CE0143969F938F9388E691E079
:101840009F938F9383E892E09F938F930E949E1DB6
:101850002DB73EB7285F3F4F0FB6F8943EBF0FBE7F
:101860002DBF029709F058C28B899C890197029776
:1018700008F052C28B898150992769897A890E9420
:10188000310A4AC2CE0141969F938F938FE591E032
:101890009F938F9383E892E09F938F930E949E1D66
:1018A0002DB73EB72A5F3F4F0FB6F8943EBF0FBE2D
:1018B0002DBF019709F030C289890E9457112CC2AF
:1018C000CE0141969F938F938FE591E09F938F93E5
:1018D00083E892E09F938F930E949E1D2DB73EB7A1
:1018E0002A5F3F4F0FB6F8943EBF0FBE2DBF019742
:1018F00009F012C289890E9474110EC2CE0141966C
:101900009F938F938FE591E09F938F9383E892E06D
:101910009F938F930E949E1D2DB73EB72A5F3F4F26
:101920000FB6F8943EBF0FBE2DBF019709F0F4C16A
:1019300089899A890E94EB11EFC1CE0145969F9348
:101940008F938EE691E09F938F9383E892E09F932D
:101950008F930E949E1D2DB73EB72A5F3F4F0FB653
:10196000F8943EBF0FBE2DBF019709F0D5C16D8918
:101970007E898F89988D0E94E713CEC1CE01419652
:101980009F938F938FE591E09F938F9383E892E0ED
:101990009F938F930E949E1D2DB73EB72A5F3F4FA6
:1019A0000FB6F8943EBF0FBE2DBF019709F0B4C12A
:1019B00089890E94A113B0C1CE0145969F938F9350
:1019C0008EE691E09F938F9383E892E09F938F93AD
:1019D0000E949E1D9C018DB79EB706960FB6F89487
:1019E0009EBF0FBE8DBF2130310509F095C140E08B
:1019F00050E08D899E89AF89B88DB7FFA901498BC9
:101A00005A8BB7FF0BC0B095A095909581959F4FCD
:101A1000AF4FBF4F8D8B9E8BAF8BB88F4D895E893B
:101A20006F89788D89890E94A81376C11982809167
:101A300082029927AA27BB27FC01E156F040EA3130
:101A4000F10508F05BC1EF54FF4F0C94A1220E94F6
:101A5000E011882319F082E791E002C084E791E069
:101A60000E94900A4BC1CE0143969F938F930FE53E
:101A700011E01F930F9383E892E09F938F930E944E
:101A80009E1D2DB73EB72A5F3F4F0FB6F8943EBF5D
:101A90000FBE2DBF019709F031C18B899C89019739
:101AA00019F40E94031202C00E940A1299279F9300
:101AB0008F931F930F93CE0101969F938F930E9454
:101AC0006D1D8DB79EB7069614C10E941112E3C01A
:101AD000CE0143969F938F930FE511E01F930F93D1
:101AE00083E892E09F938F930E949E1D2DB73EB78F
:101AF0002A5F3F4F0FB6F8943EBF0FBE2DBF019730
:101B000009F0FCC08B899C890197029708F0F6C008
:101B10008B8981500E942A12C9CFCE0143969F9390
:101B20008F930FE511E01F930F9383E892E09F934B
:101B30008F930E949E1D2DB73EB72A5F3F4F0FB671
:101B4000F8943EBF0FBE2DBF019709F0D7C08B8917
:101B50009C890197029708F0D1C08B8981500E941F
:101B6000BC11A4CFCE0141960E949013DC01CB01A1
:101B7000BF93AF939F938F938EE691E09F938F9344
:101B8000CE0101969F938F930E946D1D2DB73EB796
:101B9000285F3F4F91C0CE0141969F938F930FE5F1
:101BA00011E01F930F9383E892E09F938F930E941D
:101BB0009E1D2DB73EB72A5F3F4F0FB6F8943EBF2C
:101BC0000FBE2DBF019709F099C0E989FA89EF5A34
:101BD000FC4F80816BCFCE0143969F938F930FE58F
:101BE00011E01F930F9383E892E09F938F930E94DD
:101BF0009E1D2DB73EB72A5F3F4F0FB6F8943EBFEC
:101C00000FBE2DBF019709F079C08B899C89019780
:101C1000029708F073C08B8981500E94901146CFC3
:101C2000CE0143969F938F930FE511E01F930F937F
:101C300083E892E09F938F930E949E1D2DB73EB73D
:101C40002A5F3F4F0FB6F8943EBF0FBE2DBF0197DE
:101C500009F054C08B899C890197029708F04EC007
:101C60008B89815099270E943E0A21CF0E946211E0
:101C700012C00E94751199279F938F938FE591E071
:101C80009F938F9318CF0E94F31106C00E94F21306
:101C90001DC00E94A41399279F938F938FE591E015
:101CA0009F938F93CE0101969F938F930E946D1DFA
:101CB0002DB73EB72A5F3F4F0FB6F8943EBF0FBE19
:101CC0002DBF1CC0CE0141960E94B413DC01CB0194
:101CD000BF93AF939F938F938EE691E09F938F93E3
:101CE000CE0101969F938F930E946D1D8DB79EB775
:101CF00008960FB6F8949EBF0FBE8DBF89818823CA
:101D000021F0CE0101960E94900A86E791E002C080
:101D100088E791E00E94900A10929102109281024D
:101D2000E4E06A960C94942281E08093C3020E94BE
:101D3000741184E190E00E94E40980E00E94571150
:101D400008958091AC02882381F081E00E94741193
:101D500060E0862F0E94151260E081E00E9415125B
:101D600081E00E94001281E016C02091990230911A
:101D70009A0240919B0250919C0220349CE93907C1
:101D800090E0490790E0590748F00E94741185E0FF
:101D90000E94001285E00E940712089520349FE1FE
:101DA000390790E0490790E0590738F00E94741114
:101DB00084E00E94001284E0EECF203D97E03907D6
:101DC00090E0490790E0590738F00E94741183E0D1
:101DD0000E94001283E0DFCF211531054105510536
:101DE00031F48091C402882311F481E001C080E0C5
:101DF0000E94741182E00E94001282E0CCCF1F92F8
:101E00000F920FB60F921124FF920F931F932F93EF
:101E10003F934F935F936F937F938F939F93AF9372
:101E2000BF93EF93FF938091650088608093650076
:101E300030919302332359F580919502E82FFF27C3
:101E4000EE0FFF1FEE56FE4F8081918190934B0362
:101E500080934A038091980280939702E0919202C6
:101E6000803140F4FF27E170F070EE0FFF1FEA555C
:101E7000FE4F07C0FF27E170F070EE0FFF1FE65521
:101E8000FE4F808191819093490380934803209174
:101E90009402222371F480919602E82FFF27EE0F1F
:101EA000FF1FEE56FE4F80819181909347038093F0
:101EB0004603832F9927E0914A03F0914B03E80FE3
:101EC000F91F0491E0914603F0914703E20FF11DE1
:101ED000F49034E0969587953A95E1F711E08127E3
:101EE0008123682F80E00E947B1180919302E09112
:101EF0004803F0914903E80FF11D8491682F80E0B9
:101F00000E94A711802F9927BC0180E090E00E94D9
:101F1000310A80919402992724E0969587952A9515
:101F2000E1F781278123682F812F0E947B11809107
:101F30009402E0914803F0914903E80FF11D849168
:101F4000682F812F0E94A7118F2D9927BC0181E056
:101F500090E00E94310A9091930220919702920F93
:101F60009F719093930280919402820F8F7180935E
:101F70009402892F992780719070892B11F0C39A50
:101F800001C0C39880916500877F80936500FF91B1
:101F9000EF91BF91AF919F918F917F916F915F91E1
:101FA0004F913F912F911F910F91FF900F900FBE76
:101FB0000F901F901895AF92BF92CF92DF92EF9241
:101FC000FF920F931F938091AB028A3718F48F5FB3
:101FD0008093AB028091AA02982F8F5F8093AA0210
:101FE000923008F4C0C01092AA028091A302882304
:101FF00009F4B9C0A0909902B0909A02C0909B02D7
:10200000D0909C02E0909D02F0909E0200919F0271
:102010001091A002AE14BF04C006D10609F4A3C0FB
:1020200020ECE2162DE5F20620E0020720E0120780
:1020300018F484E090E002C080E090E020ECA2166A
:102040002DE5B20620E0C20620E0D20608F4826048
:102050007091A1026091A202761709F4816099271C
:10206000AA27BB27FC01089708F07DC0E553FF4F66
:102070000C94A12281E08093A9026093A802E092CF
:10208000A402F092A5020093A6021093A7026BC0CF
:102090008091B2019091B301A091B401B091B501CA
:1020A000A6019501281B390B4A0B5B0B203C8DE5E3
:1020B000380780E0480780E0580720F42FEB3DE523
:1020C00040E050E081E08093A9027093A80243C0F1
:1020D00081E08093A9026093A80280EC9DE5A0E0D6
:1020E000B0E08093A4029093A502A093A602B093BF
:1020F000A70239C0AE14BF04C006D10690F42091E7
:10210000AE013091AF014091B0015091B1012A0D63
:102110003B1D4C1D5D1DE216F30604071507B0F4C8
:1021200013C08091B2019091B301A091B401B0911C
:10213000B501A6019501281B390B4A0B5B0B2E1527
:102140003F054007510710F4A801970181E08093F3
:10215000A9026093A8022093A4023093A5024093A1
:10216000A6025093A7021F910F91FF90EF90DF906E
:10217000CF90BF90AF9008951F931092930288E084
:102180008093940281E0809398028093970220913B
:10219000C402222349F08091650390916603A091C7
:1021A0006703B091680308C0809181039091820316
:1021B000A0918303B09184038093AE019093AF010B
:1021C000A093B001B093B101222349F0809169033B
:1021D00090916A03A0916B03B0916C0308C0809149
:1021E000850390918603A0918703B0918803809323
:1021F000B2019093B301A093B401B093B501169AC4
:1022000084B3806B84BB8091640088608093640099
:102210008AB3806F8ABB81E00E94741111E0109331
:102220008B0010928C0083E180938A0048EC50E090
:1022300060E070E0812F0E94481280919502E82FA3
:10224000FF27EE0FFF1FEE56FE4F80819181909386
:102250004B0380934A0380919602E82FFF27EE0FED
:10226000FF1FEE56FE4F808191819093470380932C
:10227000460386E093E0909349038093480380E00F
:102280000E945711612F80E00E941512612F812F4B
:102290000E94151280E00E947411812F0E94571134
:1022A00085E085BD87B7806487BF1F910895882327
:1022B00031F08091C302882311F41E9A08951E986C
:1022C0000895089581B1992746E0969587954A9596
:1022D000E1F781709070089581E08093AC020895D9
:1022E0008091AC0299270895089580E090E09F992D
:1022F00081E008950895282F662341F08BB3992734
:10230000222311F4806109C0806207C08BB3992732
:10231000222311F48F7E01C08F7D8BBB0895089519
:10232000982F89B3282F3327992339F4C90164E002
:10233000969587956A95E1F706C0C90155E096958F
:1023400087955A95E1F78170907008950895282F28
:10235000662341F08BB39927222311F4806409C0CE
:10236000806807C08BB39927222311F48F7B01C0AB
:102370008F778BBB08950895982F89B3282F332723
:10238000992349F4C901E6E096958795EA95E1F726
:10239000817090700895C901880F892F881F990B4B
:1023A000919508950895882321F080917D0088609B
:1023B00003C080917D00877F80937D0008950895FC
:1023C00080917D009927F3E096958795FA95E1F73E
:1023D0008170907008959C01892F992780938700C0
:1023E00020938600089580918600282F33278091BE
:1023F00087009927982F8827282B392BC901089502
:10240000809395020895809195029927089580936D
:1024100096020895809196029927089580939802D4
:1024200008958091980299270895282F662341F0F6
:1024300085B39927222311F4806209C0806107C007
:1024400085B39927222311F48F7D01C08F7E85BB30
:1024500008950895982F85B3282F3327992339F4A9
:10246000C90135E0969587953A95E1F706C0C9010F
:1024700024E0969587952A95E1F7817090700895EC
:102480000895809392020895809192029927089569
:102490001F93182FCB01BA0124E630E040E050E052
:1024A0000E940A22DC01CB01AC01BD01812F0E94F8
:1024B0005B121F910895A0E0B0E0E1E6F2E10C9418
:1024C0007422C82E7A018B01CB01BA0124E630E0D8
:1024D00040E050E00E9448222093990230939A02F3
:1024E00040939B0250939C02C092A102C0E0D0E0B6
:1024F00083EAE81685E6F80681E0080780E0180719
:1025000068F091E1D92EA801970156954795379526
:10251000279560E07EE580ED92EB3EC085EBE81606
:102520008CE2F80680E0080780E0180738F0C2E186
:10253000DC2E60E877E184EB9CE22CC087E9E816AA
:1025400085E0F80680E0080780E0180738F0B3E17E
:10255000DB2E60EF72E886E995E01CC086E6E8169F
:1025600081E0F80680E0080780E0180738F0A4E171
:10257000DA2E6CEB70EA85E691E00CC08AE5E8168D
:10258000F1040105110560F0F5E1DF2E6FE278E658
:1025900089E590E0A80197010E944822E90102C064
:1025A000E0E1DE2E0E94A10ECC2011F081E001C0FE
:1025B0008FE180939802F894D0928A0080919802DB
:1025C000809397028D2F992780938700C093860070
:1025D00080918800282F3327809189009927982F90
:1025E0008827282B392BC217D30720F41092890093
:1025F000109288007894E114F1040105110541F06E
:1026000061E080E00E94151261E0862F0E941512A1
:10261000E114F1040105110509F07DC080919502D6
:10262000E82FFF27EE0FFF1FEE56FE4F80819181AE
:1026300090934B0380934A0380919602E82FFF27E3
:10264000EE0FFF1FEE56FE4F80819181909347035E
:102650008093460380919302992754E0969587953D
:102660005A95E1F7C1E08C278C23682F80E00E9407
:102670007B1180919302E0914803F0914903E80FA8
:10268000F11D8491682F80E00E94A7118091930230
:10269000E0914A03F0914B03E80FF11D84919927D3
:1026A000BC0180E090E00E94310A80919402992759
:1026B00044E0969587954A95E1F78C278C23682FFF
:1026C0008C2F0E947B1180919402E0914803F0913D
:1026D0004903E80FF11D8491682F8C2F0E94A711E8
:1026E00080919402E0914603F0914703E80FF11DB9
:1026F00084919927BC0181E090E00E94310A1091F9
:10270000C402112341F4612F812F0E941512612F01
:102710008C2F0E941512E8E0CDB7DEB70C94902202
:10272000FC01892B19F08091A1028083809199028C
:1027300090919A02A0919B02B0919C02BC01CD01A4
:1027400008958093A30208958091A3029927089584
:10275000282F2093A20240939D0250939E026093E3
:102760009F027093A0020895FC01892B19F08091BB
:10277000A202808380919D0290919E02A0919F026F
:10278000B091A002BC01CD0108958091A9028823D7
:1027900081F01092A9028091A4029091A502A091CB
:1027A000A602B091A702AC01BD018091A8020E94CF
:1027B0004812089508951092AB02089520E030E089
:1027C0008091AB028A3708F021E0C9010895DC014D
:1027D000CB018093AE019093AF01A093B001B09371
:1027E000B10108958091AE019091AF01A091B00127
:1027F000B091B101BC01CD0108951F920F920FB6A7
:102800000F9211242F933F934F935F936F937F9376
:102810008F939F93AF93BF93EF93FF9395B1809165
:102820005003E82FFF27E45BFC4F9083823030F4A5
:10283000992311F09F3F11F40E94940E9091500340
:102840009F5F93709093500387B1807E892B87B9E7
:10285000369AFF91EF91BF91AF919F918F917F91A8
:102860006F915F914F913F912F910F900FBE0F90FD
:102870001F90189580E687B98DE886B9369A089535
:10288000FC01E45BFC4F8081992708950E94491464
:10289000089548E350E060E070E081E593E00E9435
:1028A0001C1C0895EF92FF920F931F93CF93DF9319
:1028B00008E310E0C0E0D0E081E5E82E83E0F82EE8
:1028C000F70161917F01CE010E942D1C0150104043
:1028D000219610161106A4F3E6E0CDB7DEB70C94EE
:1028E00092222F923F924F925F926F927F928F929D
:1028F0009F92AF92BF92CF92DF92EF92FF920F938F
:102900001F9388E592E0A0E0B0E08093510390939C
:102910005203A0935303B093540340E9242E41E0A3
:10292000342E412C512C2092550330925603409264
:1029300057035092580338EC632E39E1732E812CE3
:10294000912C6092590370925A0380925B0390928B
:102950005C0328E7A22E29E6B22EC12CD12CA0922E
:102960005D03B0925E03C0925F03D092600390E675
:10297000E92E9BE5F92E93E0092F112DE0926103DA
:10298000F0926203009363031093640320EA3FE034
:1029900040E050E020936503309366034093670363
:1029A0005093680380EE9EE2A0E0B0E0809369035C
:1029B00090936A03A0936B03B0936C0310926D0322
:1029C00010926E0310926F031092700320927103A5
:1029D00030927203409273035092740360927503B5
:1029E000709276038092770390927803A092790395
:1029F000B0927A03C0927B03D0927C03E0927D0375
:102A0000F0927E0300937F03109380032093810351
:102A10003093820340938303509384038093850310
:102A200090938603A0938703B09388030E94521467
:102A30001F910F91FF90EF90DF90CF90BF90AF90DC
:102A40009F908F907F906F905F904F903F902F90CE
:102A50000895FC012083318364837583842F992733
:102A60008683978310868CE797E0868797878BEB22
:102A700097E0808B918B0895FC0166877787408B68
:102A8000518B0895FC0122813381260F371F228349
:102A9000338380819181009729F08217930710F486
:102AA00085E0808708950895A1E0B0E0EAE5F5E1CA
:102AB0000C9472228C017B01A42E6901BB245AC0A4
:102AC000F801128213822485498124272487808576
:102AD00099278330910501F1843091054CF48130C0
:102AE000910591F0823091059CF4892B31F040C022
:102AF0008430910569F10797DCF5F8014287448736
:102B000081E08087158636C0F801418782E01EC0CB
:102B1000F801438783E01AC0F80122852F3F31F086
:102B20003327868197812817390741F4F801858575
:102B30008A1520F4F601E80FF11D4083F801858520
:102B40008F5F858793858917A9F484E0808712C0F9
:102B500086E0F8018087222369F42087E114F104DC
:102B600019F08185F7018083F8018385992715C0C5
:102B7000F8011086F80126853785BE016F5F7F4F0B
:102B800084819581F9010995892B29F0B394F8E0A6
:102B9000FB1508F095CF80E090E0EAE021960C94D8
:102BA0008E22A0E0B0E0E7EDF5E10C947522EC0197
:102BB000142F7901DD24062FE889F9898C819D8104
:102BC0000995E889F9896E818C819D8109958E81AD
:102BD0000827E889F989612F8C819D810995012752
:102BE00011501F3F71F0F701ED0DF11D8081082795
:102BF000E889F989682F8C819D810995D3941150BA
:102C000090F7E889F989602F8C819D810995E7E02B
:102C1000CDB7DEB70C9491222F923F924F925F92E4
:102C20006F927F928F929F92AF92BF92CF92DF92DC
:102C3000EF92FF920F931F93CF93DF93CDB7DEB741
:102C400065970FB6F894DEBF0FBECDBFAA24BB2494
:102C500065014C011B014F87588B1D861E86FC01A8
:102C6000168217821C8A1D8A838181FD39C48FEFE9
:102C70009FEF4DC42D853E8520FF1FC4862D8053B8
:102C80008A3000F5F0E36F1639F4552029F47720E7
:102C900019F4C9019160B3C18AE0589E502C1124E7
:102CA000852D860D0F2EF0ED5F2EF02D580E22F49F
:102CB0000F2EFFE75F2EF02D8D859E8583FD10C4BE
:102CC000752C0EC4862D8556833020F0805E8330AF
:102CD00008F025C1EF85F8899F012C5F3F4F2F87B2
:102CE000388BA080B180C280D3808C899D89892B4C
:102CF00049F488E290E00E946B1C8C8B9D8B892BA1
:102D000009F4D8C38D859E8583FD04C00F2EF6E09F
:102D10005F2EF02D8D859E85877B8D879E87C601D2
:102D2000B5010E940821892BC1F08EE48B83898331
:102D300081E48A83FE013496EA8BFB8B862D8556CF
:102D4000833008F0BBC28981805E89838A81805E7E
:102D50008A838B81805E8B83B1C2C601B5010E94DC
:102D60000F21892BE1F089E48B838EE48A8386E44A
:102D700089839E012C5F3F4F2A8B3B8B20E030E004
:102D800040E050E0C601B5010E94C8208823B4F697
:102D90008DE28C83CE0105968A8B9B8BCFCF8D8560
:102DA0009E8592608D879E87862D992787FD9095B9
:102DB0008734910509F45AC0883491053CF4853470
:102DC000910599F08634910561F18AC386369105A3
:102DD00041F18736910524F48536910531F080C3A1
:102DE0008736910509F442C07BC38E01035F1F4FF4
:102DF000252DB601A5018C899D890E94A01A482E17
:102E00009CEF790E15140CF47A94EC89FD89EA8B09
:102E1000FB8B01900020E9F73197AE2E2C89A21A86
:102E2000B8C18D859E8594608D879E878E01035FD6
:102E30001F4F252DB601A5018C899D890E94A01ADE
:102E4000482E15140CF47A948C899D898A8B9B8B5F
:102E500014144CF4FC0101900020E9F73197AE2ED8
:102E60009C89A91A96C1A52CA39493C18D859E8592
:102E700098608D879E87252D552009F421E08E01CD
:102E8000035F1F4FB601A5018C899D890E94A01A7E
:102E9000482E8D859E8592FF20C0842D850D815002
:102EA000A82E8AF084157CF08A2D992787FD9095AD
:102EB000EC89FD89E80FF91F8081803321F4AA9401
:102EC00014F0A4148CF7AA2014F0A41414F45524BC
:102ED00016C05A2C5418539412C0A52C151474F40F
:102EE0008A2D992787FD9095EC89FD89E80FF91FB8
:102EF0008081803319F4AA941A1494F35A2C8A2DE1
:102F0000992787FD9095EC89FD89E80FF91F1182BB
:102F10008D859E8592FD95CFEEEF6E0E71CF8D85DE
:102F20009E8583FF04C0552011F455245394862DAB
:102F3000992787FD90958936910509F495C08A36C1
:102F4000910514F58835910509F4CCC089359105B2
:102F500094F48B329105B9F18C32910534F48032BE
:102F60009105B1F18397E1F19EC28D329105A1F1F6
:102F70008E97D1F198C28336910509F443C0843607
:102F8000910509F471C08FC28037910509F4A1C081
:102F90008137910544F48C36910571F18F36910596
:102FA00009F494C080C28537910509F49DC0863725
:102FB000910524F48337910579F175C2883791051D
:102FC00009F490C070C28D859E8580618D879E8733
:102FD0008D859E85806213C08D859E8580680FC01B
:102FE0008D859E8580640BC08D859E8588609E7FC3
:102FF0008D879E87552474C28D859E8584608D87BC
:103000009E876EC2EF85F8899F012E5F3F4F2F8705
:10301000388BA0807A9452C1EF85F889CF0102964F
:103020008F87988BA080B180198AF50180818823D1
:1030300049F099899F5F998BF501E90FF11D808116
:103040008823B9F78D859E8583FF0BC0252D3327F7
:1030500027FD30954989842F9927281739070CF4C3
:10306000598A8989781A2AC18D859E8582FF0CC06C
:10307000EF85F8899F012C5F3F4F2F87388B208188
:103080003181428153810DC0EF85F889CF010296CD
:103090008F87988B808191819C01442737FD4095D3
:1030A000542F59016A0155236CF48D859E858260E9
:1030B0008D879E87D094C094B094A094A11CB11C1D
:1030C000C11CD11C8D859E858F7B2EC098E0998B6D
:1030D0000BC08D859E8580648D879E870F2EF8E7B7
:1030E0006F2EF02DE0E1E98B8D859E8582FF0CC06F
:1030F000EF85F8899F012C5F3F4F2F87388B208108
:103100003181428153810BC0EF85F889CF0102964E
:103110008F87988B808191819C0144275527590185
:103120006A018D859E858F7C8D879E87FE013196F5
:10313000EA8BFB8BF989EF2EFF2400271127C601AC
:10314000B501A80197010E944822DC01CB01EA8960
:10315000FB8980838A301CF0860D815204C0EA8985
:10316000FB898081805DEA89FB898193EA8BFB8BF7
:10317000C601B501A80197010E94482259016A01C0
:103180002115310541055105D1F6CE010196AA88D8
:10319000A81A8D859E8582739070892B09F07A9488
:1031A0008D859E8586FF0FC0872D992787FD909579
:1031B000F989F03131F40F2EFEEF7F2EF02D780ECD
:1031C00002C0782E7A944D855E8543FF0FC0252D71
:1031D000332727FD30958A2D9927821793072CF0E6
:1031E000CA01877F8D879E8701C05A188D859E856D
:1031F00083FF02C0751801C07A188D859E8580787E
:103200009170892B69F4872D7A9418164CF4B401C7
:1032100080E290E00E94381C872D7A941816BCF347
:103220008D859E8581FF04C0B4018DE290E00FC0C2
:103230008D859E8584FF04C0B4018BE290E007C0B9
:103240008D859E8585FF05C0B40180E290E00E94D7
:10325000381C8D859E8586FF0FC0B40180E390E009
:103260000E94381C2989203139F4862D992787FD41
:103270009095B4010E94381C8D859E8590FF0DC0ED
:10328000872D7A9418164CF4B40180E390E00E94E4
:10329000381C872D7A941816BCF38D859E8583FF84
:1032A0000DC0852D5A9418164CF4B40180E390E0BB
:1032B0000E94381C852D5A941816BCF38D85807891
:1032C00069F4872D7A9418164CF4B40180E290E0EA
:1032D0000E94381C872D7A941816BCF333E66316C7
:1032E00029F48A2D992787FD9095AEC043E764168F
:1032F000B9F489898150898B8F3F09F4C3C0F501E6
:103300008081992787FD90950894A11CB11CB40178
:103310000E94381C99899150998B9F3F81F7B2C0C8
:103320008D859E8591FF94C092FF1BC01414ACF450
:103330004A94EFEF4E1679F0EA89FB898191EA8B86
:10334000FB8B992787FD9095B4010E94381C4A9405
:10335000FFEF4F1689F744240FC0B40180E390E0DB
:1033600009C0EA89FB898191EA8BFB8B992787FD4C
:103370009095B4010E94381C15142CF4B4018EE20F
:1033800090E00E94381C8D859E8592FF15C0842D8B
:10339000439488238CF4852D5A9418166CF4B40148
:1033A00080E390E00E94381C842D4394882324F409
:1033B000852D5A9418169CF3EA89FB89A190EA8B13
:1033C000FB8BAA20B1F0852D5A94181694F48A2DFF
:1033D000992787FD9095B4010E94381CEA89FB89E2
:1033E000A190EA8BFB8BAA2021F0852D5A94181608
:1033F00074F38D859E8592FD45C0862D992787FDA6
:103400009095B4010E94381C4A943CF4B4018DE2BA
:1034100090E00E94381C419405C0B4018BE290E01A
:103420000E94381C842D992787FD90956AE070E0F2
:103430000E943522DC01CB015C016D01C096B40114
:103440000E94381CC601C096B4010E94381C1AC0E4
:10345000CE0101962A893B892817390799F08E01F8
:103460000F5F1F4FEA89FB898291EA8BFB8B9927BB
:1034700087FD9095B4010E94381C2A893B8920174A
:10348000310781F78D858078A9F0872D7A941816F9
:103490008CF4B40180E290E00E94381C872D7A946D
:1034A0001816BCF307C0862D992787FD9095B401A7
:1034B0000E94381C1D861E8613C035E2631649F42F
:1034C00081E090E08D879E875524752C4AE0498BDA
:1034D00007C0862D992787FD9095B4010E94381C5E
:1034E000F401838183FF06C0F1010894211C311C83
:1034F000649003C0F10161901F01662009F0BACB0E
:103500008C899D890E940A1DF401868197816596A8
:103510000FB6F894DEBF0FBECDBFDF91CF911F91E4
:103520000F91FF90EF90DF90CF90BF90AF909F9062
:103530008F907F906F905F904F903F902F90089565
:103540002F923F924F925F926F927F928F929F92B3
:10355000AF92BF92CF92DF92EF92FF920F931F93A1
:10356000CF93DF93CDB7DEB726970FB6F894DEBFC3
:103570000FBECDBF3C015A016B012D8328012223D0
:103580000CF41D822D81263214F065E26D831E82BB
:1035900043010F2EF8E22F2E3324F02D260C371C7A
:1035A00020E030E040E050E0C601B5010E94C820B4
:1035B000882354F4F2018081918182608083918319
:1035C000D7FAD094D7F8D094AE014F5F5F4FC601C1
:1035D000B5010E9418215B016C0120E030E040E061
:1035E00050E069817A818B819C810E94C820882368
:1035F00009F44AC081012CC02DEC3CEC4CEC5DE39D
:1036000069817A818B819C810E944D21DC01CB01F3
:10361000AE014F5F5F4FBC01CD010E941821DC015C
:10362000CB012AE939E941E251E4BC01CD010E9414
:103630004D21DC01CB01BC01CD010E94AD20DC019C
:10364000CB01805DF80182938F01FE81FF5FFE83D5
:1036500020E030E040E050E069817A818B819C81FC
:103660000E94C820882319F08016910628F20215BE
:10367000130580F5F80181918F01F40181934F01C9
:1036800002151305B8F326C020E030E040E050E01A
:10369000C601B5010E94CB201816E4F405C05701FD
:1036A0006801FE81F150FE8320E030E040E251E409
:1036B000C601B5010E944D217B018C0120E030E064
:1036C00040E85FE30E94C82088234CF3E982FA8235
:1036D0000B831C83F2014081518153FF16C0FE8190
:1036E000FD3F9CF08F2F992787FD90956D81262FA8
:1036F000332727FD30952F5F3F4F821793072CF418
:10370000CA019460F20180839183F20180819181EA
:1037100092FD03C0FD81FF5FFD832D81822F9927DC
:1037200087FD90958301080F191FF2018081918117
:1037300092FF07C0FE818F2F992787FD9095080F74
:10374000191F0615170510F4F30157C008151905C0
:1037500020F18214930408F520E030E040E251E4C7
:10376000C601B5010E944D21AE014F5F5F4F0E941F
:1037700018215B016C0169817A818B819C810E9497
:10378000AD20DC01CB01805DF40181934F010E1768
:103790001F0718F0E215F305F8F20215130518F0EB
:1037A000F30117A22BC04801F80180818B5F808351
:1037B0008A3314F120E331E3F801208360167106A7
:1037C00028F482918F018F5F808312C0F8013083CB
:1037D000FE81FF5FFE83F2018081918192FF08C02C
:1037E0006814790410F4F40120830894811C911C5E
:1037F000F80180818A3304F7F4011082FE818F2F53
:10380000992787FD909526960FB6F894DEBF0FBED8
:10381000CDBFDF91CF911F910F91FF90EF90DF907F
:10382000CF90BF90AF909F908F907F906F905F9060
:103830004F903F902F9008954115510569F0DC019C
:10384000E199FECF7FBB6EBBE09A6F5F7F4F0DB2F9
:103850000D9241505040B1F70895E199FECF9FBBC2
:103860008EBB6DBB0FB6F894E29AE19A0FBE089535
:103870000F931F93CF93DF938C01EB018B819927DB
:1038800081FF22C082FF14C02E813F814C815D8167
:10389000241735073CF4A881B9810D93A883B98317
:1038A0002E813F812F5F3F4F2E833F83C8010EC083
:1038B000E885F985802F0995892B31F4EE81FF8108
:1038C0003196EE83FF83F2CF8FEF9FEFDF91CF91A1
:1038D0001F910F910895CF93DF939C01029710F4ED
:1038E00022E030E040E050E0E091AF02F091B00221
:1038F000BF01DA013097B1F080819181821793077F
:1039000009F47CC02817390738F44115510519F01E
:103910008417950708F4AC01DF010280F381E02DE4
:10392000309751F741155105B1F0DA01A21BB30BE5
:10393000149708F49A01FB01A0E0B0E0672B59F05E
:103940006081718164177507B9F1DF010280F3812D
:10395000E02D3097A9F74091AD025091AE0241158C
:10396000510541F44091B8015091B9015093AE0214
:103970004093AD02A091BA01B091BB01109799F0AC
:10398000FA01CA01820F931F02968A179B0740F41F
:103990009093AE028093AD0221933193CF0137C053
:1039A00080E090E034C0ADB7BEB7E091B601F091D1
:1039B000B701AE1BBF0BE4CF2417350769F0421BDC
:1039C000530BEF01C40FD51F299339934250504038
:1039D00040835183CE011BC0109749F0228133816F
:1039E00012962D933C931397CF01029610C04281FB
:1039F00053815093B0024093AF02F6CF109771F706
:103A0000228133813093B0022093AF02EDCFDF915A
:103A1000CF910895CF93DF93009709F45BC0DC0149
:103A2000129712961D921C9213978091AF0290915B
:103A3000B0020097D1F1FC0140E050E0EA17FB072B
:103A400010F5AF010280F381E02D3097B9F7EA015C
:103A5000AA83BB83FA01329628813981E20FF31FD2
:103A6000EA17FB07B9F56D917C911197260F371F67
:103A70002E5F3F4F2883398312964D915C911397A7
:103A80004A835B8327C0ED011296ED93FC93139755
:103A90002D913C911197C20FD31FCE0102968E1724
:103AA0009F0741F04115510591F6B093B002A093E4
:103AB000AF0210C06A817B81260F371F2E5F3F4FF8
:103AC0002D933C9311972281338112962D933C9331
:103AD0001397E8CFDF91CF9108950F931F93CF9362
:103AE000DF93CDB7DEB72C970FB6F894DEBF0FBECD
:103AF000CDBF0B891C89ED89FE8936E03C830983A3
:103B00001A834FEF5FE74D835E83AE01495E5F4FDF
:103B1000BF01CE0101960E940C162F813885020F3D
:103B2000131FD8011C922C960FB6F894DEBF0FBE5F
:103B3000CDBFDF91CF911F910F910895CF93DF9368
:103B4000CDB7DEB72C970FB6F894DEBF0FBECDBF52
:103B500049895A896B897C8925E02C8349835A835A
:103B6000AE014B5E5F4FCE0101960E94C01D2C96A8
:103B70000FB6F894DEBF0FBECDBFDF91CF91089591
:103B80002F923F924F925F926F927F928F929F926D
:103B9000AF92BF92CF92DF92EF92FF920F931F935B
:103BA000CF93DF93CDB7DEB72C970FB6F894DEBF77
:103BB0000FBECDBF2224332421017C015B01498348
:103BC0005A8318861C821D8200E010E0FC010683E7
:103BD00017832C813D812E833F83838180FD1FC20B
:103BE0008FEF9FEF48C2388530FFE0C185E2D816DD
:103BF00019F43E7F388705C28D2D80538A3060F4DA
:103C0000D82E9FE7C91611F4CC2404C08AE0C89EC0
:103C1000C02C1124CD0C03C28D2D992787FD9095C2
:103C20000E94CA22D82E992787FD90958E3691053D
:103C300009F492C18F369105ECF48836910509F4A8
:103C4000EEC18936910574F483369105A1F184366D
:103C500091051CF48A9739F191C18436910509F4D4
:103C6000B1C08CC18936910509F4ACC08C36910580
:103C7000F1F084C18337910509F456C0843791056A
:103C80004CF48F36910509F492C08037910509F400
:103C900094C074C18537910509F491C088379105A6
:103CA00009F48BC06BC1E885E061E887B8C1F8858D
:103CB000F460F887B4C1288524FD08C0A981BA81C1
:103CC000CD01029689839A832D903C909FE7C91677
:103CD00011F4CC24C3948C2DCA9418160CF04EC148
:103CE000E8858E2F992788249924689484F888225F
:103CF0009922C7010E9454208C01FFEF8F3F9F073C
:103D000009F49DC18114910429F4F1018083089480
:103D1000211C311C8C2DCA9418165CF32FC1B701DD
:103D2000C8010E9490203DC0288524FD08C0A981BB
:103D3000BA81CD01029689839A832D903C90C70168
:103D40000E9454208C010E94BB22892BC1F79FEF57
:103D50000F3F190709F473C18C2DCA9418160CF57E
:103D6000E8858E2F992788249924689484F88822DE
:103D70009922C8010E94BB22892B89F681149104E3
:103D800029F4F10100830894211C311CC7010E9411
:103D900054208C018F5F9F4F21F08C2DCA941816F0
:103DA00044F3288524FDEAC0F1011082E7C038E021
:103DB0003B8388858260888705C090E19B83E88586
:103DC000E260E887C7010E9454208C010E94BB2258
:103DD000892BC1F7FFEF0F3F1F0709F430C10D32E8
:103DE00011F00B3269F40D3219F428852860288708
:103DF000C7010E9454208C018F5F9F4F09F41FC19F
:103E0000003379F5222433242101C7010E94542074
:103E10008C018FEF0F3F180709F474C0C8010E948E
:103E2000CA228837C9F49FE6D91631F0E4E6DE16D7
:103E300019F0F5E7DF1629F4B701C8010E949020B8
:103E400061C020E12B83C7010E9454208C018F5F49
:103E50009F4F09F457C005C089E6D81611F498E0C1
:103E60009B83222433242101EB81FF27E987FA87F2
:103E7000FB816F2E772488249924C8010E94CA22CE
:103E80009C01205330402B873C872A30310524F099
:103E9000275230402B873C878B859C8599232CF0BB
:103EA000E985FA858E179F072CF0B701C8010E949B
:103EB00090201DC0C201B101A40193010E940A22F9
:103EC0001B012C012B853C85C901AA2797FDA095D4
:103ED000BA2F280E391E4A1E5B1ECA941C143CF4CD
:103EE000C7010E9454208C018F5F9F4F31F6888557
:103EF00083FF08C05094409430942094211C311CBE
:103F0000411C511CE8858E2F992784FD37C081FF05
:103F100008C0A981BA819D012E5F3F4F29833A8352
:103F200016C0388532FF0DC0A981BA81CD01029635
:103F300089839A83ED91FC9120823182428253825F
:103F40001DC0A981BA81FD013296E983FA83ED9102
:103F5000FC912082318212C0F885F4FD0FC0A98146
:103F6000BA819D012E5F3F4F29833A830D90BC910A
:103F7000A02DF701868197818D939C931886F70178
:103F8000868197812E813F812817390734F48C81EF
:103F90009D8101968C839D8342C09EE6D91609F0CF
:103FA0004EC0EFEF0F3F1E07D1F549C0F5E2DF1617
:103FB00079F421E028873AE03B83F7010680F78116
:103FC000E02DEE83FF830F2EFFE7CF2EF02D27C0CD
:103FD0008D2D992787FD90950E94BB22892B89F012
:103FE000C7010E9454208C010E94BB22892BC1F77B
:103FF000FFEF0F3F1F0719F1B701C8010E94902082
:104000000EC0C7010E9454208C018F5F9F4FB9F0F2
:104010008D2D992787FD90950817190781F4F701D1
:10402000838183FF06C0F5010894A11CB11CD490C4
:1040300003C0F501D1905F01DD2009F0D4CDF885F2
:10404000F0FF0DC0F701868197812E813F812817EF
:1040500039072CF48C819D8101968C839D83EC81A2
:10406000FD81EF2B31F4FFEF0F3F1F0711F40C839D
:104070001D838C819D812C960FB6F894DEBF0FBEF8
:10408000CDBFDF91CF911F910F91FF90EF90DF9007
:10409000CF90BF90AF909F908F907F906F905F90E8
:1040A0004F903F902F900895CF93DF93EC012B8199
:1040B000822F992780FF23C086FF0AC02F7B2B8386
:1040C000AE81BF811196AE83BF838A81992725C0B7
:1040D00082FF18C0A881B9813D91432F552747FD24
:1040E0005095A883B9834115510539F0EE81FF81C0
:1040F0003196EE83FF83842FE9CF20622B838FEFED
:104100009FEF0BC0EA85FB850995AC018FEF4F3F10
:10411000580761F72B812061F1CFDF91CF9108958E
:104120009C01FB014381842F992780FF12C086FDEB
:1041300010C08FEF2F3F380761F0228340644F7D1E
:104140004383A681B7811197A683B783822F9927CE
:1041500008958FEF9FEF0895089597FB47D09F37FD
:1041600038F0FEE9F91B982F872F762F6B2F05C0AB
:104170004AC09695879577956795F150D0F73EF4AC
:1041800090958095709561957F4F8F4F9F4F0895C3
:104190000ED05EF004C00BD026F001C008D019F09C
:1041A00020F48FEF089580E0089581E0089597FB53
:1041B000092E052600F8689410D0E89407FC07C083
:1041C000621773078407950721F008F40094079499
:1041D00098940895052E092607FA440F551F5F3F4E
:1041E00079F0AA27A51708F051E04795880F991F85
:1041F0009F3F31F0BB27B91708F091E087950895EC
:104200009F919F9104C16627772788279927089552
:104210009F3F59F4803C49F481E0992708959068C4
:104220008923872386238395B9F3882799270895BF
:1042300097FBDCDFCF93DF93D52FC42F552744277F
:10424000332722279923D9F09F37C8F0F92FC7D0F9
:10425000592F482F372F262FF63968F47EDFB0D03C
:10426000C030CD0721F06993799389939993905841
:10427000DF91CF9161C09927882777276627C030C3
:10428000CD0721F02993399349935993DF91CF9129
:10429000A6C0592F482F372F262F9CDF01D09FC053
:1042A000992339F0552329F09F575F57950F13F441
:1042B000CAF1ACCF91589F3FE1F3A62F00241124FF
:1042C000BB2766275527F8E0A69520F4020E131E9B
:1042D000B41F651F220F331F441F551FFA95A1F706
:1042E000F8E0E72F7727F8E0E69520F4130EB41FE7
:1042F000651F7A1F330F441F551FAA1FFA95A1F798
:10430000F82F8827F69520F4B40F651F7A1F8E1FAB
:10431000440F551FAA1FEE1FFF23A1F788231AF48D
:10432000939539F474C0000C111CBB1F661F771FD6
:10433000881F012808955058192E4CDF01D04FC016
:10434000BA176207730784079507B1F188F40EF472
:1043500010940B2EBA2FA02D062E622F202D072E83
:10436000732F302D082E842F402D092E952F502D80
:10437000FF275523B9F0591B49F0573E98F0469551
:1043800037952795A795F0405395C9F776F0BA0F62
:10439000621F731F841F30F4879577956795B795D3
:1043A000F040939517FA0F2E0895BF1BBB27BA0B49
:1043B000620B730B840BF6CFDEF628CFE89403C0B4
:1043C00097FB0EF4DDDEB62F672F782F892F9EE93D
:1043D000002405C09A95BB0F661F771F881F112404
:1043E0009923A1F08823B2F79F3F59F0BB0F48F4FF
:1043F00021F4002011F460FF04C06F5F7F4F8F4FE6
:104400009F4F881F9795879597F90895FCCE9FEF4A
:1044100080EC0895629FD001739FF001829FE00DB0
:10442000F11D649FE00DF11D929FF00D839FF00D33
:10443000749FF00D659FF00D9927729FB00DE11DDF
:10444000F91F639FB00DE11DF91FBD01CF011124BC
:104450000895991B79E004C0991F961708F0961BE0
:10446000881F7A95C9F78095089597FB092E07262E
:104470000AD077FD04D06BD006D000201AF47095D6
:1044800061957F4F0895F6F7909581959F4F089518
:10449000A1E21A2EAA1BBB1BFD010DC0AA1FBB1F48
:1044A000EE1FFF1FA217B307E407F50720F0A21BBA
:1044B000B30BE40BF50B661F771F881F991F1A9427
:1044C00069F760957095809590959B01AC01BD0151
:1044D000CF0108952F923F924F925F926F927F92F9
:1044E0008F929F92AF92BF92CF92DF92EF92FF9204
:1044F0000F931F93CF93DF93CDB7DEB7CA1BDB0BB0
:104500000FB6F894DEBF0FBECDBF09942A88398854
:1045100048885F846E847D848C849B84AA84B9845B
:10452000C884DF80EE80FD800C811B81AA81B98167
:10453000CE0FD11D0FB6F894DEBF0FBECDBFED017B
:104540000895EE0FFF1F0590F491E02D0994AA1B2A
:10455000BB1B51E107C0AA1FBB1FA617B70710F06E
:10456000A61BB70B881F991F5A95A9F780959095A0
:10457000BC01CD010895992399F4803299F08A30D5
:1045800089F08C3079F08D3069F0893059F08B30BA
:1045900039F408958F9309D08F9109F080620895BE
:1045A00099278827089585FDFBCF80629923C1F75D
:0A45B0008136B4F38B37A4F70895A9
:1045BA005F5F766563746F725F64656661756C745C
:1045CA00210D0A0025642F2564203D2037663A25EF
:1045DA003032780D0A0025642F2564203D203838B2
:1045EA003A253032780D0A0025642F2564203D20B3
:1045FA0037383A253032780D0A0043485F41004384
:10460A00485F42005F00717569740D0A00A00F25AA
:10461A006400256420257800256420256400256C23
:10462A006400310030002E004669726D7761726550
:10463A002076302E3920323030352D30382D313435
:10464A002500A601C601E601060226024602660206
:10465A008602A602C602E6020603E6022603E8036B
:0C466A000000E8030000200089030000AD
:00000001FF
