:020000021000EC
:10F06000C884DF80EE80FD800C811B81AA81B9817C
:10F07000CE0FD11D0FB6F894DEBF0FBECDBFED0190
:10F080000895AA1BBB1B51E107C0AA1FBB1FA617EF
:10F09000B70710F0A61BB70B881F991F5A95A9F741
:0EF0A00080959095BC01CD010895F894FFCFA6
:10F0AE00424C5F43485F4100424C5F43485F420021
:10F0BE00A00F424C3A696E76616C69645F7374613D
:10F0CE007465004F4B00424C3A53544152544544E0
:10F0DE0000424C3A57414954494E4700424C3A453A
:10F0EE004C415053454400424C3A414354495645D5
:10F0FE0000260131013C014701424C5F3230313470
:08F10E0030373038410059018F
:040000031000E00009
:00000001FF
